:020000040800F2
:100000000000022001650008D1150008D515000880
:10001000D9150008DD150008E115000800000000F2
:10002000000000000000000000000000E5150008CE
:10003000E915000800000000ED150008F1150008A2
:1000400051650008516500085165000851650008B8
:100050005165000851650008F51500085165000854
:100060005165000851650008516500085165000898
:10007000516500085165000851650008FD1500082C
:100080005165000851650008516500080000000036
:1000900000000000000000000000000051650008A2
:1000A0005165000851650008516500085165000858
:1000B0005165000851650008516500085165000848
:1000C0005165000851650008516500085165000838
:1000D00051650008516500085165000800000000E6
:1000E00051650008516500085165000800000000D6
:1000F0000000000000000000000000005165000842
:1001000000000000516500085165000851650008B5
:1001100000000000000000000000000000000000DF
:1001200051650008516500085165000851650008D7
:100130005165000800000000000000000000000001
:100140000000000000000000000000000916000888
:1001500051650008516500085165000851650008A7
:100160005165000851650008000000000000000013
:10017000000000000000000000000000000000007F
:1001800000000000516500080000000000000000B1
:080190005165000851650008EB
:1001A00010B5054C237833B9044B13B10448AFF3B1
:1001B00000800123237010BD2C03002000000000EC
:1001C0002094000808B5034B1BB103490348AFF363
:1001D000008008BD000000003003002020940008CB
:1001E000034613F8012B002AFBD1181A0138704777
:1001F00001F0FF01102A2BDB10F0070F08D010F8D8
:10020000013B013A8B422DD010F0070F42B3F6D1DB
:10021000F0B441EA012141EA014122F007047FF0F4
:1002200000070023F0E80256083C85EA010586EA4B
:10023000010685FA47F5A3FA87F586FA47F6A5FA87
:1002400087F68EB9EED1F0BC01F0FF0102F0070293
:1002500032B110F8013B013A83EA010313B1F8D13E
:100260000020704701387047002D06BF354603381F
:10027000073815F0010F07D1013015F4807F02BF58
:10028000013015F4C03F0130F0BC0138704700BFA9
:1002900081F0004102E000BF83F0004330B54FEA37
:1002A00041044FEA430594EA050F08BF90EA020FA4
:1002B0001FBF54EA000C55EA020C7FEA645C7FEA37
:1002C000655C00F0E2804FEA5454D4EB5555B8BF5A
:1002D0006D420CDD2C4480EA020281EA030382EACB
:1002E000000083EA010180EA020281EA0303362D5D
:1002F00088BF30BD11F0004F4FEA01314FF4801C30
:100300004CEA113102D0404261EB410113F0004F41
:100310004FEA03334CEA133302D0524263EB4303F8
:1003200094EA050F00F0A780A4F10104D5F1200E96
:100330000DDB02FA0EFC22FA05F2801841F10001F1
:1003400003FA0EF2801843FA05F359410EE0A5F1C5
:1003500020050EF1200E012A03FA0EFC28BF4CF0F6
:10036000020C43FA05F3C01851EBE37101F00045AC
:1003700007D54FF0000EDCF1000C7EEB00006EEBB9
:100380000101B1F5801F1BD3B1F5001F0CD3490843
:100390005FEA30004FEA3C0C04F101044FEA44529A
:1003A00012F5800F80F09A80BCF1004F08BF5FEA21
:1003B000500C50F1000041EB045141EA050130BD01
:1003C0005FEA4C0C404141EB0101013C28BFB1F513
:1003D000801FE9D291F0000F04BF01460020B1FA5E
:1003E00081F308BF2033A3F10B03B3F120020CDA31
:1003F0000C3208DD02F1140CC2F10C0201FA0CF00F
:1004000021FA02F10CE002F11402D8BFC2F1200C73
:1004100001FA02F120FA0CFCDCBF41EA0C01904029
:10042000E41AA2BF01EB0451294330BD6FEA040472
:100430001F3C1CDA0C340EDC04F11404C4F120025D
:1004400020FA04F001FA02F340EA030021FA04F36F
:1004500045EA030130BDC4F10C04C4F1200220FAC6
:1004600002F001FA04F340EA0300294630BD21FA04
:1004700004F0294630BD94F0000F83F4801306BFCA
:1004800081F480110134013D4EE77FEA645C18BFBE
:100490007FEA655C29D094EA050F08BF90EA020F55
:1004A00005D054EA000C04BF1946104630BD91EA4D
:1004B000030F1EBF0021002030BD5FEA545C05D150
:1004C0004000494128BF41F0004130BD14F580048F
:1004D0003CBF01F5801130BD01F0004545F0FE4103
:1004E00041F470014FF0000030BD7FEA645C1ABF38
:1004F000194610467FEA655C1CBF0B46024650EA6F
:10050000013406BF52EA033591EA030F41F400219A
:1005100030BD00BF90F0000F04BF0021704730B520
:100520004FF4806404F132044FF000054FF00001F5
:1005300050E700BF90F0000F04BF0021704730B5B6
:100540004FF4806404F1320410F0004548BF40428B
:100550004FF000013EE700BF42004FEAE2014FEAE0
:1005600031014FEA02701FBF12F07F4393F07F4FBB
:1005700081F06051704732F07F4208BF704793F0BE
:100580007F4F04BF41F40021704730B54FF46074D1
:1005900001F0004521F000411CE700BF50EA0102D4
:1005A00008BF704730B54FF000050AE050EA01027D
:1005B00008BF704730B511F0004502D5404261EBED
:1005C00041014FF4806404F132045FEA915C3FF42E
:1005D000D8AE4FF003025FEADC0C18BF03325FEACB
:1005E000DC0C18BF033202EBDC02C2F1200300FA7C
:1005F00003FC20FA02F001FA03FE40EA0E0021FAA1
:1006000002F11444BDE600BF70B54FF0FF0C4CF48E
:10061000E06C1CEA11541DBF1CEA135594EA0C0F40
:1006200095EA0C0F00F0DEF82C4481EA030621EA7B
:100630004C5123EA4C5350EA013518BF52EA0335B6
:1006400041F4801143F4801338D0A0FB02CE4FF068
:100650000005E1FB02E506F00042E0FB03E54FF098
:100660000006E1FB03569CF0000F18BF4EF0010E90
:10067000A4F1FF04B6F5007F64F5407404D25FEA8C
:100680004E0E6D4146EB060642EAC62141EA55513F
:100690004FEAC52040EA5E504FEACE2EB4F1FD0C81
:1006A00088BFBCF5E06F1ED8BEF1004F08BF5FEAFF
:1006B000500E50F1000041EB045170BD06F00046B1
:1006C00046EA010140EA020081EA0301B4EB5C045E
:1006D000C2BFD4EB0C0541EA045170BD41F4801156
:1006E0004FF0000E013C00F3AB8014F1360FDEBF7B
:1006F000002001F0004170BDC4F10004203C35DA57
:100700000C341BDC04F11404C4F1200500FA05F3D9
:1007100020FA04F001FA05F240EA020001F000427A
:1007200021F0004110EBD37021FA04F642EB0601F0
:100730005EEA430E08BF20EAD37070BDC4F10C041A
:10074000C4F1200500FA04F320FA05F001FA04F2DE
:1007500040EA020001F0004110EBD37041F10001CA
:100760005EEA430E08BF20EAD37070BDC4F12005D5
:1007700000FA05F24EEA020E20FA04F301FA05F23D
:1007800043EA020321FA04F001F0004121FA04F2E5
:1007900020EA020000EBD3705EEA430E08BF20EAB5
:1007A000D37070BD94F0000F0FD101F000464000EF
:1007B00041EB010111F4801F08BF013CF7D041EA71
:1007C000060195F0000F18BF704703F00046520075
:1007D00043EB030313F4801F08BF013DF7D043EA46
:1007E0000603704794EA0C0F0CEA135518BF95EAFC
:1007F0000C0F0CD050EA410618BF52EA4306D1D183
:1008000081EA030101F000414FF0000070BD50EAA1
:10081000410606BF1046194652EA430619D094EA2B
:100820000C0F02D150EA013613D195EA0C0F05D115
:1008300052EA03361CBF104619460AD181EA030169
:1008400001F0004141F0FE4141F470014FF0000021
:1008500070BD41F0FE4141F4780170BD70B54FF0BC
:10086000FF0C4CF4E06C1CEA11541DBF1CEA13553C
:1008700094EA0C0F95EA0C0F00F0A7F8A4EB05041E
:1008800081EA030E52EA03354FEA013100F0888015
:100890004FEA03334FF0805545EA131343EA1263DE
:1008A0004FEA022245EA111545EA10654FEA002693
:1008B0000EF000419D4208BF964244F1FD0404F54C
:1008C000407402D25B084FEA3202B61A65EB0305A8
:1008D0005B084FEA32024FF480104FF4002CB6EB65
:1008E000020E75EB030E22BFB61A754640EA0C00E5
:1008F0005B084FEA3202B6EB020E75EB030E22BF25
:10090000B61A754640EA5C005B084FEA3202B6EB65
:10091000020E75EB030E22BFB61A754640EA9C0024
:100920005B084FEA3202B6EB020E75EB030E22BFF4
:10093000B61A754640EADC0055EA060E18D04FEAB2
:10094000051545EA16754FEA06164FEAC30343EA52
:1009500052734FEAC2025FEA1C1CC0D111F4801F1F
:100960000BD141EA00014FF000004FF0004CB6E718
:1009700011F4801F04BF01430020B4F1FD0C88BFB7
:10098000BCF5E06F3FF6AFAEB5EB030C04BFB6EBC2
:10099000020C5FEA500C50F1000041EB045170BDB5
:1009A0000EF0004E4EEA113114EB5C04C2BFD4EBE2
:1009B0000C0541EA045170BD41F480114FF0000E66
:1009C000013C90E645EA060E8DE60CEA135594EAE2
:1009D0000C0F08BF95EA0C0F3FF43BAF94EA0C0FE5
:1009E0000AD150EA01347FF434AF95EA0C0F7FF45A
:1009F00025AF104619462CE795EA0C0F06D152EAAE
:100A000003353FF4FDAE1046194622E750EA410691
:100A100018BF52EA43067FF4C5AE50EA41047FF4A2
:100A20000DAF52EA43057FF4EBAE12E74FF0FF3C07
:100A300006E000BF4FF0010C02E000BF4FF0010CD8
:100A40004DF804CD4FEA410C7FEA6C5C4FEA430C51
:100A500018BF7FEA6C5C1BD001B050EA410C0CBFA0
:100A600052EA430C91EA030F02BF90EA020F002002
:100A7000704710F1000F91EA030F58BF994208BF69
:100A800090422CBFD8176FEAE37040F00100704726
:100A90004FEA410C7FEA6C5C02D150EA013C07D17D
:100AA0004FEA430C7FEA6C5CD6D152EA033CD3D0C8
:100AB0005DF8040B704700BF8446104662468C46C2
:100AC0001946634600E000BF01B5FFF7B7FF0028F5
:100AD00048BF10F1000F01BD4DF808EDFFF7F4FF1E
:100AE0000CBF012000205DF808FB00BF4DF808EDA9
:100AF000FFF7EAFF34BF012000205DF808FB00BFCC
:100B00004DF808EDFFF7E0FF94BF012000205DF8ED
:100B100008FB00BF4DF808EDFFF7CEFF94BF0120A2
:100B200000205DF808FB00BF4DF808EDFFF7C4FF9B
:100B300034BF012000205DF808FB00BF4FEA410CE4
:100B40007FEA6C5C02D150EA013C0AD14FEA430CC7
:100B50007FEA6C5C02D152EA033C02D14FF0000004
:100B600070474FF0010070474FEA410212F5001242
:100B700015D211D56FF47873B3EB625212D94FEAE4
:100B8000C12343F0004343EA505311F0004F23FACE
:100B900002F018BF404270474FF00000704750EA23
:100BA000013005D111F0004008BF6FF000407047E0
:100BB0004FF00000704700BF53B94AB9002908BF81
:100BC00000281CBF4FF0FF314FF0FF3000F074B928
:100BD000ADF1080C6DE904CE00F006F8DDF804E094
:100BE000DDE9022304B070472DE9F047089D044673
:100BF0008E46002B4DD18A42944669D9B2FA82F2D0
:100C000052B101FA02F3C2F1200120FA01F10CFA0B
:100C100002FC41EA030E94404FEA1C48210CBEFB43
:100C2000F8F61FFA8CF708FB16E341EA034306FBCC
:100C300007F199420AD91CEB030306F1FF3080F05B
:100C40001F81994240F21C81023E63445B1AA4B2A8
:100C5000B3FBF8F008FB103344EA034400FB07F74A
:100C6000A7420AD91CEB040400F1FF3380F00A818B
:100C7000A74240F207816444023840EA0640E41B80
:100C800000261DB1D4400023C5E900433146BDE82C
:100C9000F0878B4209D9002D00F0EF800026C5E9CE
:100CA000000130463146BDE8F087B3FA83F6002EE6
:100CB0004AD18B4202D3824200F2F980841A61EB5E
:100CC000030301209E46002DE0D0C5E9004EDDE77C
:100CD00002B9FFDEB2FA82F2002A40F09280A1EB64
:100CE0000C014FEA1C471FFA8CFE0126200CB1FBB9
:100CF000F7F307FB131140EA01410EFB03F08842B2
:100D000008D91CEB010103F1FF3802D2884200F23E
:100D1000CB804346091AA4B2B1FBF7F007FB1011D0
:100D200044EA01440EFB00FEA64508D91CEB04046E
:100D300000F1FF3102D2A64500F2BB800846A4EBC9
:100D40000E0440EA03409CE7C6F12007B34022FAB4
:100D500007FC4CEA030C20FA07F401FA06F31C43E3
:100D6000F9404FEA1C4900FA06F3B1FBF9F8200CF0
:100D70001FFA8CFE09FB181140EA014108FB0EF036
:100D8000884202FA06F20BD91CEB010108F1FF3A86
:100D900080F08880884240F28580A8F10208614492
:100DA000091AA4B2B1FBF9F009FB101144EA0141A0
:100DB00000FB0EFE8E4508D91CEB010100F1FF344B
:100DC0006CD28E456AD90238614440EA0840A0FBE3
:100DD0000294A1EB0E01A142C846A64656D353D0B9
:100DE0005DB1B3EB080261EB0E0101FA07F722FADD
:100DF00006F3F1401F43C5E9007100263146BDE806
:100E0000F087C2F12003D8400CFA02FC21FA03F368
:100E1000914001434FEA1C471FFA8CFEB3FBF7F0E9
:100E200007FB10360B0C43EA064300FB0EF69E420E
:100E300004FA02F408D91CEB030300F1FF382FD2A7
:100E40009E422DD9023863449B1B89B2B3FBF7F64F
:100E500007FB163341EA034106FB0EF38B4208D928
:100E60001CEB010106F1FF3816D28B4214D9023E69
:100E70006144C91A46EA004638E72E46284605E787
:100E80000646E3E61846F8E64B45A9D2B9EB020858
:100E900064EB0C0E0138A3E74646EAE7204694E7E8
:100EA0004046D1E7D0467BE7023B614432E730461B
:100EB00009E76444023842E7704700BF0FB400B549
:100EC0009BB01CAA01A852F8041B009206F0EEF891
:100ED00001A8FFF785F902464FF0FF3392B201A94E
:100EE000034803F0C1FE1BB05DF804EB04B070478B
:100EF000F005002008B504F083F84FF48033013B7F
:100F0000FDD1F8E770B500239AB0CDE91033CDE9F3
:100F10001233CDE90333CDE90533CDE90733CDE90C
:100F20000933CDE90B33254A01930D93116C41F040
:100F300080511164126C02F080520192204A019992
:100F40000293136843F440431360136803F440436F
:100F500002934FF480330F930124029B0E944FF4BD
:100F600080030226192514964FF4C071CDE915357A
:100F70000423CDE917130EA80823199302F0F2FAFF
:100F8000D0B90346059307930F23039303A84FF4A7
:100F9000805303210496069302F08AFD60B940F263
:100FA0000F12062308A8CDE9095208940B9302F00A
:100FB0009FFE08B91AB070BDFFF79CFF00380240D1
:100FC000007000402DE9F04F85B003F083FFFFF77C
:100FD00099FF00F0CBF84F48DFF874A14E4CDFF8D2
:100FE0007491DFF874814D4FFFF768FF04F058F8F3
:100FF00000224B494B4804F00FFA4B49494804F092
:1010000021FA4A49474805F075FA464804F022FAA1
:1010100026E0474B1B680022CAF80020002B43D073
:101020000123434ACAF8003052684BF680339A4293
:1010300030D0404B9A4223D04AF644439A424FF074
:10104000000014D003F0F4FF012003F0F1FF0220B0
:1010500003F0EEFF642003F069FF374B1B684BBBC6
:10106000DAF80030B3F5167FD3D80133D9E703F0AF
:10107000DFFF012003F0DCFF022003F0C9FFE9E7F6
:10108000002003F0C5FF012003F0D2FF022003F08F
:10109000CFFFDFE7002003F0CBFF012003F0B8FF14
:1010A000022003F0C5FFD5E703F0C2FEDAF80030F6
:1010B0000133B6E7204B214D002018602D22204837
:1010C000B421FFF7FBFE1F4B1F4819681F4B1A681E
:1010D000FFF7F4FE4FF480762378DBB259F823B0A3
:1010E0002378DBB258F823202378039207EB83039D
:1010F0001868FFF731FA039ACDE9000159462846EE
:10110000FFF7DCFE23780133DBB2013E2370E3D12D
:10111000A6E700BF38940008EC0F0020EC0B00207D
:10112000000000204803002088000020500000201C
:10113000E4050020007701003C0B0020D494000857
:1011400054940008F00F00209894000884000020B8
:10115000EC050020F80F0020F813002003460A4693
:1011600001481946FFF7AABEE094000810B50B48E5
:101170000B4C00234FF4E1310C22C0E90041C0E9DF
:101180000233C0E90432C0E9063303F0EDFC00B9D4
:1011900010BDBDE81040FFF7ADBE00BFF005002058
:1011A0000044004030B5194A016889B000239142DB
:1011B000CDE90333CDE90533079301D009B030BD44
:1011C00002F5FA320193116C41F400311164106C94
:1011D00000F40030019001980293136B0C4843F027
:1011E00001031363136B0C2503F0010302930DEB52
:1011F00005010322072302240395CDE90623029D5E
:10120000049402F0DBFE09B030BD00BF0044004092
:101210000000024030B589B0184C194800250195EE
:10122000236B43F001032363236B03F0010301935A
:101230004FF4C0530393022304930323CDE90553D2
:1012400003A90A23019A079302F0B8FE636B43F0E7
:10125000800363630295636C43F480436364636C4F
:1012600003F480432A46052102934320029B03F0A6
:1012700081FD432003F0C8FD09B030BD00380240B5
:101280000000024000F57171D0F8040404F0FAB8CF
:10129000C1EBC10300EB8303D0F80404D3F80822A8
:1012A00004F020B9C1EBC10300EB8303D0F80404C0
:1012B0009A6C04F055B900BFD0F8040404F0F0B9FA
:1012C00010B5C16882B0003918BF01210446D0F8BA
:1012D0000404019104F0A6F90199D4F8040402B0C1
:1012E000BDE8104004F0C6B9D0F8040404F0C6B953
:1012F000D0F8040404F0CCB9D0F8040404F0ECB93C
:10130000D0F8040404F0DAB9D0F8040404F0F2B917
:10131000D0F8040404F0F0B970B5144C4FF0A042BA
:1013200000250223C4F804040126C0F89842226074
:1013300020460422C4E90636E36062602563256125
:101340002562E562656200F065F94FF49071204610
:1013500000F0DCFE29461022204600F0ADFE1022EF
:101360003146204600F0A8FE284670BD3006002019
:1013700008B5D0F8980200F0E7F9002008BD00BFDA
:1013800008B59446D0F898021A46634600F036FD38
:10139000002008BD08B5D0F8980200F06DFD0020CF
:1013A00008BD00BF08B5D0F8980200F069FE002023
:1013B00008BD00BF08B5D0F8980200F0E5FD002098
:1013C00008BD00BF08B5D0F8980200F021FE00204B
:1013D00008BD00BF0A06D0F8983206D4C1EBC1019F
:1013E00003EB810191F8FE01704701F07F01C1EB31
:1013F000C10103EB810191F83E00704708B5D0F8B8
:10140000980200F0E7FC002008BD00BF08B5D0F846
:10141000980200F091FD002008BD00BF08B5D0F88B
:10142000980200F057FD002008BD00BFD0F89802D8
:1014300000F078BD122301480B8070471C0000208B
:10144000042301480B8070473000002010B5044C85
:1014500004480A46214604F0C3FB204610BD00BFE5
:10146000380A00201095000810B5044C04480A46BC
:10147000214604F0B5FB204610BD00BF380A00200D
:101480002495000810B5044C04480A46214604F08F
:10149000A7FB204610BD00BF380A00203495000885
:1014A00010B5044C04480A46214604F099FB204636
:1014B00010BD00BF380A0020449500082048D0F82D
:1014C000103AD0F8182A30B59B184FF01A040C8047
:1014D00001D11C4830BD1B4AD0F8141A4FF0000E41
:1014E00010467546B3F1204F4FEA137C0CF13004DF
:1014F0000EF1020E2ABF0CF1370C847080F802C086
:10150000BEF1100FC5704FEA031300F10200E9D1DC
:1015100000200446B1F1204F4FEA117303F1300C63
:1015200000F102002ABF373382F812C093740828F2
:10153000D4744FEA011102F10202EBD1014830BD2F
:101540000070FF1F3400002000207047002070470B
:101550000020704708B503F013FE002008BD00BF4F
:10156000012A10B5144609D0022A05D189B203F028
:10157000EBFD054B01221A60002010BD03F0CCFDED
:10158000014B00201C6010BDE405002010B5034B8A
:1015900000241C6003F0E0FD204610BDE40500209F
:1015A00010B50346034C08461946636003F0E0FE9D
:1015B000002010BDE40500200148022104F098BF7E
:1015C000480300200148012104F092BF4803002095
:1015D000704700BFFEE700BFFEE700BFFEE700BFA9
:1015E000FEE700BF704700BF704700BF704700BFF5
:1015F00003F08ABC012002F06BBE00BF014803F07B
:10160000EFB800BF880B0020014800F0BDB800BF54
:1016100030060020F0B58BB0002800F08E80046802
:10162000B4F1A04F054604D046488721FFF796FD48
:101630002C6895F8BD3303F0FF02002B76D02046CE
:10164000032385F8BD33E36B2E4613F4807308BF84
:101650002B6100F04DFE56F810EBB446BCE80F00CD
:101660006C460FC4BCE80F000FC49CE8030084E87C
:1016700003002F1D97E80E00704600F04DFD044654
:1016800030B101240223204685F8BD330BB0F0BDF4
:101690000146286800F034FE686858B322464FF0CF
:1016A000010E2146C2EBC20305EB830302F1010CDC
:1016B00083F83C20A3F842205FFA8CF28242C3E90F
:1016C000111183F83DE083F83F101965EAD3002239
:1016D000C4EBC40305EB8303611C83F8FC41CCB26B
:1016E0008442C3E9812283F8FD2183F8FF21C3F8F6
:1016F0001022EDD30FCE6C460FC40FCE0FC496E868
:10170000030084E8030097E80E00286800F010FE4C
:1017100004460028B5D1012385F83800286885F8EB
:10172000BD3301F0E9F920460BB0F0BD284685F83D
:10173000BC23FFF76FFD286882E7012420460BB029
:10174000F0BD00BF5495000810B590F8BC33012BD4
:101750000446006816D0A36A0122934284F8BC2391
:1017600008D001F0B9F9206800F0BAFD002084F833
:10177000BC0310BDA3699342F3D0836B43F4803361
:101780008363EEE7022010BD2DE9F04F076887B0B4
:101790000446384601F0EEF910B107B0BDE8F08F0D
:1017A0008346206801F0B8F90028F6D0206801F0DF
:1017B000B3F910F0020F20681EBF436903F0020363
:1017C000436101F0A9F910F4002F206840F0348142
:1017D00001F0A2F910F4802F206840F0D28001F0CF
:1017E0009BF9002859DB206801F096F9010549D4DE
:1017F000206801F091F9C3047AD4206801F08CF9D3
:1018000010F4005F20685CD101F086F910F0100F31
:10181000206812D0836923F0100383613D6AC5F309
:101820004343022B05F00F0600F02282062B00F046
:101830007881836943F01003836101F06DF9070734
:1018400000F15481206801F067F9C60200F144817B
:10185000206801F061F9850200F13481206801F00F
:101860005BF9400000F12581206801F055F941073E
:1018700093D523685D686A0700F11B825A682A4382
:101880005A608AE7D7F80838DA0700F10E82206834
:10189000436903F400634361ABE7D7F8042822F0FF
:1018A0000102C7F8042894F8F433012B00F03281C8
:1018B0002046FFF71DFD2068436903F000434361A4
:1018C00092E701F05BF9206800F030FEE0602568E7
:1018D00002F0E8F9227B0146284600F087FC20460A
:1018E000FFF7EEFC2068436903F4005343618BE784
:1018F000D7F80438206823F001031021C7F8043812
:1019000000F0F2FD606807F50065B0B107F51063FF
:101910004FF67F3199601A6822F400121A60C3F8FA
:101920000812D3F800220BF1010B22F400128345B8
:10193000C3F8002203F12003ECD1EB69226B43F0E2
:101940000113EB61002A40F0DA806B6943F4005325
:1019500043F02B036B612B6943F00B032B61D7F82A
:101960000038217C206823F4FE63C7F8003804F5B2
:10197000717201F015F92068436903F480534361E3
:101980003CE701F0D5F880462068B8F1000F3FF43D
:1019900026AFCDE9027B264607F510694FF0000A15
:1019A00009E05FEA58080AF1010A06F11C0609F18C
:1019B000200900F0C98018F0010FF2D05FFA8AF711
:1019C000394601F0C7F8C30705461CD50299012026
:1019D000D1F834380AF00F0200FA02F223EA0203C7
:1019E000C1F834382369C9F80800834203D1D6E925
:1019F00011231344B36439462046FFF753FC216991
:101A0000012900F05B81280744BF0823C9F808308A
:101A1000E90644BF1023C9F808306A0644BF4023D2
:101A2000C9F80830AB0744BF0223C9F808302806BC
:101A300000F18F802068B4E701F072F80546206855
:101A4000002D3FF4C5AE07F53066A2464FF0000802
:101A5000039707E06D0808F1010806F120060AF176
:101A60001C0A74D0EB07F5D55FFA88F1029101F0FA
:101A700067F810F0010F0299814640F0BF8019F01D
:101A8000080F40F0E480206819F0100F1CBF1023ED
:101A9000B36019F0200F05D02169012900F05881A9
:101AA0002023B36019F4005F1CBF4FF40053B360F0
:101AB000D0E72046FFF728FC2068436903F0804305
:101AC0004361D2E620460021FFF716FC20684369F7
:101AD00003F400134361C2E620460021FFF710FC27
:101AE0002068436903F480134361B2E62046FFF7A0
:101AF000E3FB2068436903F008034361A3E6D5F8DC
:101B0000843043F00B03C5F884306B6C43F00B0357
:101B10006B6424E7002184F8F413204600F0FAFAFD
:101B2000C9E6082204F571713846C6EBC60600F016
:101B300059FF04EB8602C5F30A13D2F81412206889
:101B40000B44C2F8143274E6DDE9027B47E6039FDA
:101B50003EE6D6E91453D4F800B0AB4258463FF6FF
:101B600020AF0BF5106202EB4A1211469646726CDA
:101B70008969CDF814B0A5EB030C624528BF624615
:101B800089B20332B1EB920FC0F0DE80CDF8108045
:101B9000A04674461AE0736CB16C9D4228BF1D4686
:101BA00098F8103000933A46ABB2584600F004FF64
:101BB000B36CA1692B44B364736D89B22B440335B4
:101BC000B1EB950F7365C0F0B880356D9D42A5EB04
:101BD0000305E0D84446DDF81080D4F800B0059B3A
:101BE0000AF00F0203F500610125D3F8343805FA35
:101BF00002F223EA020358464B63D2E620682769C3
:101C00000123B36000F5306303EB4813012FD0F8D4
:101C100040E09A6879D06D4FBE4572D117046CD5FB
:101C20004FF4004219F0080F9A603FF42DAF026C98
:101C3000986866498A424FD020460292FFF722FBFD
:101C4000634B029A9A424FD80823B3601BE722687D
:101C5000216902F5306303EB48130129126C98687F
:101C6000E7D15B498A4237D82046FFF70BFBEBE709
:101C700047F6F0731D423FF4DCADC6EBC60604EB3D
:101C800086063846C5F30A173A46D6F8081200F019
:101C9000A9FED6F80822D6F8143220683A443B440C
:101CA000C6F80822C6F81432C3E52046FFF71CFB2D
:101CB000EDE52046FFF72CFB2368DFE5BAF1000FC6
:101CC0007FF4A1AE236D002B7FF49DAE206804F558
:101CD000717200F065FF96E6020402D54FF40042EF
:101CE0009A602046FFF7CEFA21690129ACD120681D
:101CF00004F5717200F054FFA6E7900644BF20225D
:101D00009A602046FFF7C4FAB9E6170726D530498E
:101D10008E4504D9120444BF4FF400429A60204615
:101D20000293FFF7AFFA04F571722068012100F009
:101D300037FF029B08229A60A1E64446356DD4F82D
:101D400000B0DDF8108058469D423FF62AAE46E7C7
:101D500004F5717200F024FF2068A1E6970608D50B
:101D600020229A6019F0080F3FF48EAE026C98683A
:101D700077E712F0280FF5D1154FBE4505D91204AB
:101D800003D54FF400429A60ECE71B69DAF80422AD
:101D9000C3F31203D31ACAF81432DAF80832134420
:101DA000CAF808322046FFF773FAB8F1000F7FF443
:101DB00066AED4F81032002B7FF461AE206804F5D3
:101DC0007172012100F0ECFE59E600BF0A31544F58
:101DD0000A30544F90F8BC23012A0DD010B50446A8
:101DE0000122006884F8BC2384F8381000F064FEF7
:101DF000002084F8BC0310BD0220704710B501F02C
:101E00000F0E0906044627D44FF01C0C0CFB0E0CD9
:101E10000CF5FE71CEEBCE0C00EB8C0C00208CF898
:101E2000FD018A604A7881F800E0CB700AB1A1F820
:101E300006E0022B04BF00230B7194F8BC33012B86
:101E400018D0012384F8BC33206800F07BFB00230A
:101E500084F8BC33184610BD1C2000FB0E4000F176
:101E60003C01CEEBCE0004EB80004FF0010C80F87B
:101E70003DC0D6E7022010BD01F00F03C3EBC30243
:101E800011F0800F4FF01C0110B500EB82020446E8
:101E900001FB030113D101F5FE71002082F8FD0161
:101EA0000B7094F8BC33012B12D00123206884F806
:101EB000BC3300F093FB002084F8BC0310BD3C3120
:101EC000012082F83D000B7094F8BC33012BECD15B
:101ED000022010BD10B501F00F04C4EBC40C00EBE0
:101EE0008C0C1C21CCF810320023CCF808228CF882
:101EF000FC41CCF814328CF8FD31036901FB04017C
:101F0000012B08BFCCF80C22006801F5FE71DAB293
:101F10001CB900F0D1FC002010BD00F0C1FB002076
:101F200010BD00BF01F00F01C1EBC10100EB810149
:101F3000D1F81402704700BF10B501F00F04C4EBD4
:101F4000C40C00EB8C0C1C21CCF850300023CCF8D6
:101F500054300123CCF848208CF83C408CF83D30BC
:101F6000036901FB0401012B08BFCCF84C20006879
:101F70003C31DAB21CB900F09FFC002010BD00F02B
:101F80008FFB002010BD00BF38B5436801F00F057E
:101F90009D4233D80B0604461CD4C1EBC1031C225E
:101FA00002FB010100EB830301F5FE71002283F8BF
:101FB000FD2101238B700D7094F8BC239A421BD035
:101FC000206884F8BC3300F01DFDCDB1002084F8FA
:101FD000BC0338BDC5EBC5031C2101FB050100EBAB
:101FE000830301223C3183F83D2001238B700D7067
:101FF00094F8BC239A42E3D1022038BD012038BDB9
:10200000217C206804F5717200F0CAFDDEE700BF94
:10201000426838B501F00F0393422ED8C3EBC302D8
:1020200011F0800F4FF01C01044600EB820201FB0F
:10203000030115D101F5FE710020002582F8FD0194
:102040008D700B7094F8BC33012B14D001232068E1
:1020500084F8BC3300F004FD84F8BC53284638BD36
:102060003C310120002582F83D008D700B7094F802
:10207000BC33012BEAD1022038BD012038BD00BF9E
:1020800090F8BC33012B15D0012310B580F8BC3378
:102090000B060446006805D400F038FA002084F8E6
:1020A000BC0310BD01F00F0100F01EFA002084F8FF
:1020B000BC0310BD0220704710B40468606A31B9D7
:1020C00040EA0240A06200205DF8044B7047A36A1A
:1020D000B1F1010C00EB13400BD0002303F14001E0
:1020E00004EB810101334968DBB2634500EB114029
:1020F000F4D30CF1400C04EB8C0C40EA0240CCF819
:1021000004005DF8044B0020704700BF0368002006
:1021100059627047704700BF84B00DF1040C8CE821
:102120000E00069B012B024631D1836B0D9923F4DF
:1021300080338363C36823F4840323F04003C360C4
:10214000C368012923F44013C36044D0264B01E047
:10215000013B45D011690029FADA1369224943F09D
:102160000103136101E001393AD0136913F001034F
:10217000F9D11846049B012B07D1936843F006035D
:102180009360936843F02003936004B07047C16884
:10219000154B41F04001C16001E0013B22D01169C3
:1021A0000029FADA1369104943F00103136101E0D1
:1021B000013917D0136913F00103F9D118460A9BAE
:1021C00023B9936B43F480339363D3E7936B23F486
:1021D00080339363CEE7C36843F48013C360B5E7ED
:1021E0000320C7E70320EAE7400D0300022A034665
:1021F0000BD04FF4105CD96821F47051D960DA68C3
:1022000042EA0C020020DA607047264A26480A4457
:10221000824232D9254A26480A44824230D925488A
:10222000A1F57402A2F5105282422CD92248A1F1E4
:102230008372A2F5E742824228D3204A20480A440A
:10224000824226D91F4A20480A44824224D31F4A88
:102250001F480A448242CCD31E48A1F1B772A2F5AE
:10226000585282421BD31C4A1C480A44824234BF43
:102270004FF4E05C4FF4C05CBDE74FF4705CBAE72C
:102280004FF4605CB7E74FF4505CB4E74FF4405C48
:10229000B1E74FF4305CAEE74FF4205CABE74FF4AE
:1022A000005CA8E7405327FFFF340C00401E1BFFD3
:1022B0003F420F007F4F120020D6130060B6E5FEAC
:1022C0005FE3160000D3CEFE40771B00C05BB3FE79
:1022D000C091210020753800E05459FEE09C410077
:1022E000034600209A6842F001029A60704700BFDE
:1022F000034600209A6822F001029A60704700BFEE
:1023000008B5C368012923F0C043C3600BD041B9AD
:10231000C36843F08043C360322002F007FE002010
:1023200008BD012008BDC36843F00053C360F3E754
:1023300084B02DE9F04308AC84E80E00129D002221
:1023400003460C46104602F1400103EB81010132C5
:102350000F2A4860F7D1002D40F0A580D3F804285B
:1023600003F5006C42F00202CCF804209A6B42F4B0
:1023700000129A639A6B22F400229A639A6B22F4F9
:1023800080229A630022C3F8002EDCF80020CCF8EB
:1023900000200D9A012A00F09180DCF8002042F024
:1023A0000302CCF800204FF484621A614C4A02E028
:1023B000013A00F09180186910F02000F8D1102245
:1023C0001A61474A02E0013A00F088801969C9069B
:1023D000F9D40021CCF81010CCF81410CCF81C1053
:1023E000E4B103F510620F464FF090484FF00069DA
:1023F0004FF67F3E08E017600131A1421761C2F835
:1024000008E002F1200230D01668002EF3DA11B194
:10241000C2F80080F0E7C2F80090EDE7DCF8102089
:1024200022F48072CCF8102000210B9A99616FF091
:10243000804159611AB99A6942F010029A6199690A
:10244000284A0A430E999A6119B19A6942F0080222
:102450009A61012D05D19A6942F0804242F004024E
:102460009A61BDE8F04304B07047002103F5306283
:102470000F464FF090484FF000694FF67F3E08E05E
:1024800017600131A1421761C2F808E002F1200291
:10249000C4D01668002EF3DA11B1C2F80080F0E75C
:1024A000C2F80090EDE79A6B22F400129A639A6BDF
:1024B00042F4002203F5006C9A6363E70A9A22B99A
:1024C000DCF80020CCF800206DE7DCF8002042F0BA
:1024D0000102CCF8002066E7012070E7012078E7D0
:1024E000400D030000383C80890141F02001064A7C
:1024F000016101E0013A05D0036913F02003F9D12D
:102500001846704703207047400D03001023064A09
:10251000036101E0013A05D0036913F01003F9D11A
:102520001846704703207047400D0300D0F8083864
:1025300013F0060004D013F0020F14BF02200F2086
:10254000704700BF30B44B780A78012B22D0D0F806
:102550001C4802F00F0C4FF4803303FA0CF32343B2
:1025600000EB4212C0F81C38D2F8003B1B040ED41A
:102570008B68D2F8000BC978C3F30A03034343EA1C
:10258000814343F0805343F40043C2F8003B0020F2
:1025900030BC7047D0F81C5802F00F0C03FA0CF353
:1025A00000F500642B4300EB4210E361D0F80039E2
:1025B0001C04ECD48B68D0F80049C978C3F30A0333
:1025C000234343EA814343EA825242F0805242F479
:1025D0000042C0F8002930BC0020704710B44A788F
:1025E0000B78012A00EB43122CD0D2F8001B0029F3
:1025F0001BDBD0F83C484FF4803103F00F0301FAA5
:1026000003F324EA0304C0F83C48D0F81C482249EC
:1026100024EA0303C0F81C38D2F8003B5DF8044BF1
:1026200019400020C2F8001B7047D2F8001B41F08F
:102630000061C2F8001BD2F8001B41F08041C2F8D3
:10264000001BD6E7D2F8001900290BDAD2F80019DE
:1026500041F00061C2F80019D2F8001941F0804140
:10266000C2F80019D0F83C1803F00F040123A3406E
:1026700021EA0301C0F83C18D0F81C48074924EAB5
:102680000303C0F81C38D2F800395DF8044B194038
:102690000020C2F8001970470078F3EF007833EC9F
:1026A0002DE9F0414C7891F800C0012C4FD000EB9F
:1026B0004C1C0CF530631C69E40CE4041C611C69BF
:1026C00024F0FF5424F4C0141C614C6974B38D6869
:1026D000784E2C44013CB4FBF5F406EAC44EA4B297
:1026E00005FB04F41D694EEA05051D611D69C4F36F
:1026F00012042C43012A1C6124D0CB78012B0CD16D
:10270000D0F8083813F4807FDCF8003B0CBF43F0AE
:10271000005343F08053CCF8003BDCF8003B43F01F
:102720000443CCF8003B0020BDE8F0818C681D69B3
:10273000C4F312042C431C611C69012A44F40024D4
:102740001C61DAD1CA68002AD7D05A61D5E74E6930
:1027500000EB4C15DEB3D5F810398F68DB0CDB04C9
:10276000C5F81039D5F8103923F0FF5323F4C013FE
:10277000C5F810394F4BD5F8108906EB070E0EF14E
:10278000FF3EBEFBF7FE03EACE4343EA0803C5F86B
:102790001039D5F81079C6F312033B43C5F8103948
:1027A000CF78012F05F5106353D0012A6DD0D5F8ED
:1027B000003943F00443C5F80039D0F834380CF040
:1027C0000F0C04FA0CF41C43C0F83448ABE7D5F8FE
:1027D000104924F0FF5424F4C014C5F81049D5F86A
:1027E000104944F40024C5F81049D5F81049E40C08
:1027F000E404C5F81049012A05F51063CF7839D0F3
:10280000D5F80049012F44F00444C5F800498AD1A5
:10281000D0F8084814F4807F1C680CBF44F00054C2
:1028200044F080541C60002A7FF47DAFB6B20336BA
:10283000B6083FF478AFCB6800EB0C3C0CF5805C3D
:1028400003EB860153F8042BCCF800208B42F9D11E
:1028500069E71C6924F0C0441C611C69012A44F02A
:1028600000541C6116D0D5F8004944F00444C5F862
:102870000049CDE70A695AB9012F0ED01A6842F013
:1028800004421A600020BDE8F0810A69002AF5D0F0
:102890005A61F1E70A69002AFAD1D0F8082812F43F
:1028A000807F1A680CBF42F0005242F080521A60DA
:1028B000E4E700BF0000F81F70B44B780C78012BE0
:1028C00027D000EB441000F530631C69E40CE404ED
:1028D0001C611C6924F0FF5424F4C0141C614C6971
:1028E000A4B98C681D6945F400251D611D69C4F3F8
:1028F00012042C43012A1C613FD0D0F8003B43F066
:102900000443C0F8003B002070BC70478C684C61E9
:10291000E8E74D6900EB441303F51063002D31D057
:102920001E69F60CF6041E611E6926F0FF5626F499
:10293000C0161E618E68B54284BF4E6135461E6961
:1029400046F400261E611E69C5F312053543012AAF
:102950001D6127D01A68496942F004421A600029B3
:10296000D1D0D0F8343804F00F02012494401C4335
:10297000C0F83448002070BC7047CA68002ABCD038
:102980005A61BAE71D6925F0FF5525F4C0151D6190
:102990001D6945F400251D611D69ED0CED04012A3A
:1029A0001D61D7D10A6902B15A611A6842F0044226
:1029B000002070BC1A60704710B49DF8044064B9E0
:1029C00003339B0809D0013200EB023001EB830393
:1029D00051F8042B02608B42FAD100205DF8044BC1
:1029E000704700BF033292080AD000F5805C01EB0B
:1029F0008200DCF8003041F8043B8142F9D1704795
:102A0000084670474A780B78012A00EB43100CD037
:102A1000D0F8002B002A00DBD3B9D0F8003B43F4F8
:102A20000013C0F8003B00207047D0F80029002AAE
:102A300006DB2BB1D0F8003923F08043C0F8003911
:102A4000D0F8003943F40013C0F800390020704773
:102A5000D0F8003B23F08043C0F8003BDDE700BF27
:102A60004A780B78012A00EB431013D0D0F8003BD2
:102A700023F40013C0F8003BCB78023B012B01D9B3
:102A800000207047D0F8003B43F08053C0F8003B73
:102A900000207047D0F8003923F40013C0F8003943
:102AA000CB78023B012BEBD8D0F8003943F08053B0
:102AB000C0F8003900207047D0F8003823F4FE63D6
:102AC000C0F80038D0F80038090101F4FE6119435C
:102AD000C0F8001800207047D0F8002E034622F0FE
:102AE0000302C3F8002ED3F8043800F5006123F088
:102AF000020300204B607047D0F8002E034622F0FE
:102B00000302C3F8002ED3F8043800F5006143F047
:102B1000020300204B607047426980691040704793
:102B2000D0F8183800F50060C0691840000C7047F4
:102B3000D0F8183800F50060C069184080B27047BE
:102B400000EB411100F50060D1F8082B40691040FE
:102B5000704700BFD0F81028D0F8343800EB41108F
:102B600001F00F01CB40DB01D0F80809DBB21343C1
:102B700018407047406900F001007047D0F8002904
:102B8000034622F4FF6222F00702C3F80029D3F8BB
:102B9000043800F5006143F4807300204B607047F7
:102BA00010B4144B046C9C421AD800F5306000231A
:102BB0000361036943F400230361036943F01803CD
:102BC00003610369012943F0C043036104D14261F9
:102BD000036843F08023036000205DF8044B7047D6
:102BE000D0F8003B002B00F53060E0DA00205DF803
:102BF000044B70470A30544F704700BF002800F064
:102C0000028138B5824A03689342044614D0A2F583
:102C10007842934210D002F5806293420CD002F5C4
:102C20007842934208D002F5E052934204D07948AA
:102C300040F21B11FEF792FA636833F4407304D03C
:102C400074484FF48E71FEF789FAA36833F03002AE
:102C500006D0B02B04D06F4840F21D11FEF77EFA6B
:102C6000E368052B00F2BB802B2222FA03F3DB077B
:102C700040F1B580236933F4007340F0BA80636992
:102C8000654AA3F5FA51914206D9022B04D0614856
:102C90004FF49071FEF762FAA36933F0080304D091
:102CA0005C4840F22111FEF759FAE369012B04D97F
:102CB00058484FF49171FEF751FA94F8413003F0FF
:102CC000FF02002B00F0838021686369022284F8F0
:102CD0004120C86920F47B6020F00F009342C86156
:102CE0000A6272D0D4E90232002A0CBF10252025D6
:102CF0000120202B98BF6D0001F038F92269B2F550
:102D0000007F7CD0B0FBF5F000EB800061694300F0
:102D1000B3FBF1F341490533A1FB03131809811EED
:102D2000FD29C3F3C0034AD8216840EA03231343B3
:102D30000B62CA69D4E9013022F47B62034322F0BA
:102D40000F02E06813430343A069226A034343F47C
:102D50000063012ACB6105D92E4840F2BD11FEF770
:102D6000FDF9226A012A24D1206861682C4B2D4A82
:102D7000984218BF4FF0402231F40071D4E902109C
:102D8000294B636341EA00010CBF4FF480730023B9
:102D90000B43D169A06921F47B61034321F00F014A
:102DA0000220D1611062D1690B439BB243F40063EE
:102DB000D36100200123606484F8413038BD636C26
:102DC00043F010030120636438BD2269AFE7174B5D
:102DD00084F8402063632046FFF70EFF74E70D4838
:102DE0004FF48F71FEF7BAF9236933F400733FF49F
:102DF00046AF084840F21F11FEF7B0F93FE7E3681D
:102E00001BB1AD007EE701207047ED007AE700BFFF
:102E1000003001408C950008C0CE0200CDCCCCCC57
:102E2000003800400034004009330008C931000870
:102E3000704700BF68B30368174A934210B5044651
:102E400015D0A2F57842934211D002F580629342E8
:102E50000DD002F57842934209D002F5E052934238
:102E600005D00E484FF4FB71FEF778F92368022273
:102E700084F84120DA6922F480622046DA61FFF7A3
:102E8000D7FF0023636484F8413084F8403018464B
:102E900010BD0120704700BF003001408C95000834
:102EA00000293FD0002A3DD038B590F84030012BA2
:102EB00004463ED0012380F8403090F84130012B89
:102EC00039D1032380F84130056800234364EB695E
:102ED000416203F00703032B26D0052B24D0028583
:102EE0004285A06B1C4B03641C4BC3631C4BC36427
:102EF000238D05F10C029BB201F0D2FB00BB2368CD
:102F0000DA69510503D4DA6942F48062DA615A68F9
:102F1000920703D45A6842F002025A60002384F8F0
:102F2000403038BD0120704753009BB22385638534
:102F3000D7E7022038BD002380F84030022038BD9A
:102F4000636C012243F008030021636484F841208C
:102F500084F84010104638BD95310008A1310008B2
:102F6000D13200082DE9F043436833F4007385B093
:102F7000054605D0B3F5807F00F08680002632E05C
:102F8000806B18B101F0E4FB002875D1002601F038
:102F9000C7FF074604E001F0C3FFC01B632829D820
:102FA0002B689C6814F00204F5D001F0B9FF0446C8
:102FB00004E001F0B5FF001B632827D82B689A684E
:102FC0001106F6D4DA69002122F48062DA610091F8
:102FD0009A680092009A5A6822F002025A6095F8A4
:102FE0004120052A20D00123304685F8413005B024
:102FF000BDE8F083012385F8413085F840406A6CD4
:103000001A436A641E4685F84130CEE70122002348
:1030100085F8412085F84030696C2B68114369645C
:10302000164685F84120CDE7E86B28B101F090FB0A
:10303000002840F08D802B685449554A8B4218BFB8
:103040004FF040220021D36923F48063D3610191C2
:10305000D368019393680193019B5368696823F0D7
:103060000103536071B96B6C012243F040036B6440
:10307000164685F84120B6E76B6C43F0080301263D
:103080006B6484E7D368AEE7C06B18B101F060FBF6
:10309000002875D1002695F84130052B15D02B68F6
:1030A000DA69002122F48062DA610391DA6803921E
:1030B0009A680392039A69685A68B1F5807F22F092
:1030C00001025A60CFD0DB688DE7A86B38B101F000
:1030D0003FFB20B16B6C43F0080301266B6401F0E9
:1030E0001FFFDFF8A8802A4F04464FF0010904E0D3
:1030F00001F016FF001B64283AD82B6843450CBF2B
:103100003A464FF0402292689207F1D5DFF87C8072
:103110001F4F4FF0010905E001F002FF001B64287A
:103120001DD82B6843450CBF39464FF040218A68B3
:1031300012F08002F0D1C86920F48060C861029268
:103140008A680292029A4A6822F002024A60A7E75D
:103150006A6C2B6842F008026A6401266CE76B6CAB
:1031600043F001036B6401262B6885F84190D9E791
:103170006B6C43F001036B64012685F84190BCE75A
:103180006B6C43F0080301266B6484E70038004051
:103190000034004008B5806B02F010F808BD00BF95
:1031A00008B5C369806B4BB901684A684FF0010CE0
:1031B00022F002024A60438580F841C001F0FAFF24
:1031C00008BD00BF704700BF10B5036884B09A689F
:1031D000019290F84120042A044605D094F8413029
:1031E000032B31D004B010BD019AD1070FD55A6816
:1031F00052060CD5C16ADA6821F8022B428EC162F0
:10320000013A92B24286428E92B2002A4AD0019B83
:103210005906E3D523685A689206DFD55A6800211B
:1032200022F060025A600291DA6802929B6802936F
:103230000123029A84F84130636C43F00203204674
:10324000636401F0C1FFC9E7019B9B070FD52368A9
:103250005A6810060BD5616A31F8022BDA60628D6C
:103260006162013A92B26285628D92B222B3019B91
:103270001907B7D523685A689206B3D55A68002152
:1032800022F0A0025A6003919B6803930123039AE2
:1032900084F84130636C43F004032046636401F01A
:1032A00093FF9FE75A68012122F060025A6080F87C
:1032B0004110FFF787FFAAE75A68012122F0A00218
:1032C0005A60204684F8411001F074FFCFE700BF38
:1032D000806B016808B54B6800224FF0010C23F0A9
:1032E00003034B604285428680F841C0436C43F043
:1032F0000803436401F068FF08BD00BF90F8410077
:10330000704700BF704700BF10B50168934A8B68D3
:1033100086B004460093924B914218BF4FF0402371
:103320009A6801924A6802925A680392426832F49B
:10333000007278D0019A92071AD5039A110617D510
:10334000426A911C12884162DA60428D013A92B25F
:103350004285428D92B25AB95A6822F0A0025A6050
:10336000438E9BB223B9012380F84130FFF7CAFF97
:10337000009BDA071CD5029B5B0619D5E36A22681D
:10338000981CD168E0621980638E013B9BB2638612
:10339000638E9BB263B9536823F060035360638DFF
:1033A0009BB22BB9012384F841302046FFF7AAFFD6
:1033B000009B58061BD5029B990618D522686748C2
:1033C0005168674B21F06001824218BF4FF04023E3
:1033D00051605A68012122F0A0025A6084F841101D
:1033E000636C43F002032046636401F0EDFE019B31
:1033F0001A0771D5039B9B066ED522685749584B17
:103400008A4218BF4FF040234FF0010C596821F059
:10341000A0015960536823F06003536084F841C0F1
:10342000636C204650E0009B9A0702D5029B1B0666
:1034300054D4019BD80702D5039B590669D4019B3C
:103440005A0622D5039B9B061FD523684349444A4D
:103450008B4218BF4FF040220020516821F06001DC
:1034600051605A6822F0A0025A600490DA6804920F
:103470009B6804930121049B84F84110636C43F022
:1034800002032046636401F09FFE009B180723D5CA
:10349000029B990620D5236830485968304A21F0AC
:1034A000A001834218BF4FF04022596051680020AC
:1034B00021F06001516005909B6805930123059AF6
:1034C00084F84130636C204643F00403636406B023
:1034D000BDE8104001F078BE06B010BD436A9A1CEA
:1034E0001B884262CB60438D013B9BB24385438D79
:1034F0009BB2002B9DD14B6823F0A0034B60438E01
:103500009BB2002B95D1012380F84130FFF7FAFEE2
:103510008FE720681149124AE36A884218BF4FF0CA
:103520004022981CD168E0621980638E013B9BB2F7
:103530006386638E9BB2002B81D1536823F06003B6
:103540005360638D9BB2002B7FF479AF012384F825
:1035500041302046FFF7D6FE71E700BF003800403B
:1035600000340040002800F057822DE9F041036844
:103570000F2B82B0044600F23781DD0737D5636830
:1035800033F4803203D0B3F5A02F40F0A081A84AD5
:10359000936803F00C03042B00F07C81936803F024
:1035A0000C03082B00F072816368B3F5803F00F0D4
:1035B0007B81B3F5A02F00F0FD819D4D2A6822F498
:1035C00080322A602A6822F480222A60002B40F090
:1035D000708101F0A5FC064605E001F0A1FC801B0E
:1035E000642800F296812B689B03F6D423689F071A
:1035F00030D5E368012B00F20C8123691F2B00F208
:1036000011818B4B9A6812F00C0F00F0F7809A68CA
:1036100002F00C02082A00F0ED80E368002B00F0B5
:103620009481844B824E01221A6001F079FC054698
:1036300005E001F075FC401B022800F26A81336846
:103640009807F6D53368226923F0F80343EAC203EA
:10365000336023681A0700F1AE805D0744D5A36884
:10366000012B06D9052B04D073484FF4C671FDF722
:1036700075FD6F4A136C13F0805340F0FB8001938B
:10368000136C43F080531364136C03F08053019365
:10369000019B0125694E3368D80540F12A81A36852
:1036A000012B00F03A81052B00F0B881604E326F9B
:1036B00022F001023267326F22F004023267002BDF
:1036C00040F0308101F02CFC41F28838074605E0DB
:1036D00001F026FCC01B404500F21B81336F9B07A5
:1036E000F6D4002D40F07081A069022800F2C48059
:1036F00000285CD04E4DAB6803F00C03082B00F0A3
:103700003581022840F07881E36933F4800304D0E6
:1037100049484FF4EC71FDF721FD236A3F2B00F27D
:103720006581636AC03BF02B00F25A81A36A082BC3
:1037300000F250814FF4AA7222FA03F3D80740F145
:103740004981E36A023B0D2B00F27281394B384EFE
:1037500000221A6601F0E4FB054605E001F0E0FBFB
:10376000401B022800F2D58033689901F6D4D4E9D1
:103770000731626A2E4D0B4343EA8213D4E90A21D2
:10378000520843EA0163013A2A4943EA024301220B
:1037900073600A6601F0C4FB044605E001F0C0FB5B
:1037A000001B022800F2B5802B689A01F6D5002094
:1037B00002B0BDE8F0816369012B52D8002B3FD0E5
:1037C0001C4B1B4E0122C3F8802E01F0A9FB0546BD
:1037D00005E001F0A5FB401B022800F29A80736F00
:1037E0009B07F6D5236838E71348E821FDF7B6FCB8
:1037F0002368C2E65B685E023FF50FAF0C4B1B68A7
:103800009D0769D5E368012B66D0012002B0BDE8B1
:10381000F081094840F21F11FDF7A0FC23691F2B1E
:103820007FF6EFAE04484FF49071FDF797FCE8E6A1
:103830000038024000004742C49500080070004074
:103840007E4A7F4EC2F8803E01F06AFB054604E0E6
:1038500001F066FB401B02285BD8736F9F07F7D40B
:10386000C0E778484FF4B071FDF778FC6369002B2E
:10387000E6D0A5E700250DE7724840F2CF11FDF72D
:103880006DFCA06900287FF435AF90E753685802BB
:103890007FF58AAE6A4B1B6899037FF5A7AE636814
:1038A000002B7FF4A3AEB0E7654A136843F480337E
:1038B000136001F035FB624E054604E001F030FB79
:1038C000401B642825D833689A03F7D58EE65D48F7
:1038D000ED21FDF743FC5AE6594A2169136823F0AC
:1038E000F80343EAC103136023681A077FF5B5AEF6
:1038F00061E7336843F48073336001F011FB0746DE
:103900003368D9053FF5CBAE01F00AFBC01B022896
:10391000F6D9032002B0BDE8F081494A136F43F0A5
:103920000103136701F0FCFA454F064641F288385F
:1039300004E001F0F5FA801B4045EAD83B6F9A0796
:10394000F7D5002D3FF4D0AE3EE03C4A3C4E13602C
:1039500001F0E6FA054604E001F0E2FA401B022815
:10396000D7D833689907F7D4236873E601283FF462
:103970001FAF6B68E26903F4800191427FF445AFA9
:10398000226A03F03F0191427FF43FAF616A47F63C
:10399000C0721A408A427FF438AFA26A03F4403101
:1039A00091427FF432AFE06A03F07063181A18BFD7
:1039B0000120FDE6224B1A6842F480221A601A6840
:1039C00042F480321A6074E71D4A136C23F080536E
:1039D000136489E61B4840F2DB11FDF7BFFBB0E63C
:1039E00018484FF4ED71FDF7B9FB9FE6154840F21A
:1039F000D911FDF7B3FB94E6104B00221A6601F0D3
:103A00008FFA044604E001F08BFA001B022880D8EC
:103A10002B689B01F7D4CAE601207047084B1A6F48
:103A200042F004021A671A6F42F001021A6779E73E
:103A300004484FF4EE71FDF791FB87E60000474222
:103A400000380240C4950008164908B58B6803F099
:103A50000C03042B1BD0082B17D14A684B6849680C
:103A600013F4800302F03F0213D10F48C1F3881111
:103A7000A1FB0001FDF7A0F80A4B5B68C3F301430B
:103A800001335B00B0FBF3F008BD074808BD0748F1
:103A900008BD0648C1F388110023A1FB0001FDF712
:103AA0008BF8E9E7003802400024F40040787D01FB
:103AB000002800F0DA800368013B0E2B2DE9F0416D
:103AC0000D46044600F2C880072D00F2BF806F4A01
:103AD000136803F00F03AB4209D2EBB21370136803
:103AE00003F00F03AB4202D00120BDE8F081236850
:103AF00098072CD5590704D565498A6842F4E052E5
:103B00008A601A0704D562498A6842F460428A6072
:103B1000A16831F0800214D021F02002902A10D048
:103B200021F04002A02A0CD021F01002C02A08D0B7
:103B3000F02906D040F275215648FDF70FFBA16829
:103B400023685348826822F0F0020A438260DF074C
:103B500025D56368032B00F29080012B00F087804D
:103B60009A1E012A4A4A12687CD99107BCD5484E50
:103B7000B26822F003021343B36001F0D1F941F2BD
:103B80008838074604E001F0CBF9C01B40457BD8DC
:103B9000B368626803F00C03B3EB820FF3D13B4AC6
:103BA000136803F00F03AB4206D9EBB2137013682E
:103BB00003F00F03AB4297D123685A0718D5E16889
:103BC00031F480520ED021F40062B2F5A05F09D02A
:103BD000B1F5C05F06D040F2BA212E48FDF7BEFA1B
:103BE000E16823682A48826822F4E0520A4382602E
:103BF0001B0718D5226932F480530DD022F40063DC
:103C0000B3F5A05F08D0B2F5C05F05D0214840F2FF
:103C1000C121FDF7A3FA22691D498B6823F4604393
:103C200043EAC2038B60FFF70FFF194A1A4C9268F0
:103C30001A49C2F303120346A25C1948D340006834
:103C40000B6001F023F90020BDE8F081114840F23B
:103C50005221FDF783FA3AE70E4840F25121FDF771
:103C60007DFA31E7900182D43EE701207047084A8F
:103C7000126896033FF57BAF36E706484FF41F7195
:103C8000FDF76CFA636868E703202EE7003C02400A
:103C900000380240C49500085897000880000020B2
:103CA00070000020014B1868704700BF80000020A2
:103CB000044B05499B68054A0868C3F38223D35C1B
:103CC000D840704700380240800000206897000804
:103CD000044B05499B68054A0868C3F34233D35C2B
:103CE000D8407047003802408000002068970008E4
:103CF000F0B504460068431E0E2B83B000F2C78067
:103D000010F0050F3AD0E368023B052B00F2CC809F
:103D1000A368C03BF02B00F2D1806368023B3D2BCF
:103D200000F2BC80784B794E00229A6601F0F8F8D8
:103D3000054605E001F0F4F8431B022B00F2A480D5
:103D400033681B01F6D4D4E9021362681B0743EA07
:103D5000811313436C4AC6F884300121916601F047
:103D6000DFF86A4E054605E001F0DAF8431B022B46
:103D700000F28A8033681F01F6D52068850779D55F
:103D80002369B3F5807F2ED0B3F5007F2BD0604A36
:103D900023F4A021914223F4803024D002F5003294
:103DA00023F4102191421ED05A4923F440328A4212
:103DB00019D001F5C02123F488138B4213D0564B40
:103DC0009A4210D003F580239A420CD003F5802349
:103DD0009A4208D003F58023984204D04F4840F619
:103DE0001221FDF7BBF9494B4D4D002201921A6C8F
:103DF00042F080521A641B6C03F080530193019BC4
:103E00002B6843F480732B6001F08AF8064604E0C7
:103E100001F086F8831B022B36D82B68D905F7D51D
:103E20003A4D23692A6F12F4407212D003F44071A4
:103E3000914210D02B6F344A0121C2F8401E23F466
:103E400040730021C2F8401E2B672B6FDA074BD45A
:103E5000236903F44072B2F5407F3AD02B498A6857
:103E600022F4F8128A60294A116FC3F30B030B4343
:103E70001367206810F0080007D02A4B227DC3F892
:103E8000E021002003B0F0BD032003B0F0BD2348C3
:103E900040F6D911FDF762F9206831E71F4840F676
:103EA000E311FDF75BF93DE71C484FF41E61FDF798
:103EB00055F9A368C03BF02B7FF62FAF174840F6AB
:103EC000E111FDF74BF96368023B3D2B7FF62AAF0A
:103ED000E4E70E48826823F0704121F4407122F437
:103EE000F8120A438260BEE701F01AF841F28837FF
:103EF000064604E001F014F8801BB842C4D82B6FCA
:103F00009B07F7D5A4E700BF0000474200380240F6
:103F1000000302000003080000031000FC950008E5
:103F200000700040001047420F4B03220260D3F89C
:103F30008420C2F388128260D3F88420C2F3027214
:103F4000C260D3F8842002F03F02426099681A6F81
:103F500001F4F81102F440720A430261D3F88C3084
:103F6000C3F300630375704700380240012801D095
:103F7000002070470E4B9A681202F9D45A6812F466
:103F8000800FD3F884200A4B14BF0A480A4802F075
:103F90003F02B0FBF2F2D3F88400D3F88430C0F3D0
:103FA000881002FB00F0C3F30273B0FBF3F070471C
:103FB0000038024040787D010024F4002DE9F04FE4
:103FC0009F4B984283B00746894617D003F580631C
:103FD000984213D003F5806398420FD003F58063B5
:103FE00098420BD003F58063984207D003F54063F5
:103FF000984203D09348B321FDF7B0F8D9F80030C8
:104000009AB2002A00F0BB801B0C1B04002B40F06E
:10401000B680D9F80430032B17D9A3F11102012A75
:1040200013D9894923F400128A420ED001F5801178
:104030008B420AD0A1F570218A4206D0834A93426E
:1040400003D08048B521FDF789F8D9F80830022B54
:1040500000F2EB800026DFF80CA2354605E00135C2
:10406000102D06F1020600F08780D9F800300124F7
:10407000AC4004EA030B34EA0303F0D1D9F804207E
:1040800022F010014B1E012B7ED94FF0030808FAD5
:1040900006F86FEA0808F868D9F8083000EA08005E
:1040A000B34003430229FB6000F08780396802F0C7
:1040B000030301EA0808B34043EA08033B60D30066
:1040C000CDD5634B00210191596C41F48041596475
:1040D0005B6C03F48043019325F0030303F18043F9
:1040E00003F59C3305F0030401999868A4000F219F
:1040F000A14020EA01015248874212D0574500F002
:104100008A805448874200F08B805348874200F0F1
:104110009180524887420CBF0420072000FA04F423
:10412000214399604E4B19684D4BD4036FEA0B0045
:1041300054BF01404BEA0101196059689303484B91
:1041400054BF01404BEA010159609968444BD402C5
:1041500054BF01404BEA01019960DB68920205F10E
:1041600001053F4A54BF03404BEA0303102DD360BF
:1041700006F102067FF479AF03B0BDE8F08F314855
:10418000B421FCF7EBFF44E7D9F80C30032B37D808
:10419000B8684FF0030808FA06F820EA0800B340B0
:1041A0000343BB607B6823EA0403C2F30014AC4002
:1041B0001C436FEA08087C606DE7D9F810100F29DE
:1041C00018D9E0211F48FCF7C9FFD9F81010D9F819
:1041D0000420E80807EB800005F00703046A9B0051
:1041E0004FF00F0C99400CFA03F324EA03030B433E
:1041F00003625BE749F2F773CB40D807E9D4E0E705
:10420000C8211048FCF7AAFFD9F80420D9F80C30CF
:1042100022F01001BCE7012000FA04F4214380E7FA
:10422000022000FA04F421437BE70648B621FCF79C
:1042300095FF0FE7032000FA04F4214371E700BF64
:104240000000024034960008000011100000221007
:104250000038024000080240000C024000100240FA
:10426000003C01400004024070B5064615460C466D
:1042700061B1012D03D805B92404B46170BD0648AD
:104280004FF4D071FCF76AFFB46170BD024840F290
:104290009F11FCF763FFECE73496000838B505463C
:1042A0000C4641B1426902EA010331EA020218BF39
:1042B000816107D038BD05484FF4DB71FCF74EFF34
:1042C0006B6923461B04AB6138BD00BF3496000800
:1042D000044A5169014200D1704708B5506100F0AD
:1042E000E7FE08BD003C014038B5044600F018FE6A
:1042F000002C00F027812368A74A9342054631D05D
:10430000183293422ED0183293422BD01832934257
:1043100028D01832934225D01832934222D0183236
:1043200093421FD0183293421CD002F5567293422A
:1043300018D01832934215D01832934212D0183246
:1043400093420FD0183293420CD01832934209D0C6
:104350001832934206D01832934203D08F48B821C6
:10436000FCF7FCFE636833F0C06306D0B3F1006F66
:1043700003D08A48B921FCF7F1FEA36833F040026C
:1043800040F09680E36833F4007340F09D80236929
:1043900033F4806340F0A180636933F4006203D09A
:1043A000B3F5805F40F0BA80A36933F4005203D0C4
:1043B000B3F5804F40F0BC80E36933F0200206D0B3
:1043C000B3F5807F03D07548BF21FCF7C7FE236A91
:1043D00033F4403303D07148C021FCF7BFFE636A59
:1043E000DBB1042B05D06D48C121FCF7B7FE636A31
:1043F0009BB1A36A032B00F2A780E36A33F0C0737A
:1044000003D06648C721FCF7A9FE236B33F4C00331
:1044100003D06248C821FCF7A1FE236802220021D4
:1044200084F8341084F835201A6822F001021A60EA
:1044300005E000F075FD401B052853D823681A6875
:10444000D107F6D4D4E90120E16802430A43D4E954
:104450000451A0692A430A43E1691D6802430A43E3
:104460004F492940256A2A430A43616A042940D0FA
:104470001A605A6922F007021143D8B2494A5961B9
:104480001038A2FB00521209474923F47F73895C5C
:10449000E16523F003035F2888BF04333F228A408D
:1044A000A36500209A600123606584F8353038BD2B
:1044B000802B3FF467AF3948BA21FCF74FFEE36821
:1044C00033F400733FF463AF3448BB21FCF746FE7E
:1044D000236933F480633FF45FAF3048BC21FCF7BD
:1044E0003DFE59E703232022626584F835301846E3
:1044F00038BDD4E90B5129430A431A605969A26AAD
:1045000021F00701114341F00401002DB5D000BB9B
:10451000012A3BD032F00202AFD121E01F48BD2179
:10452000FCF71CFEA36933F400523FF445AF3FE7AC
:104530001A48BE21FCF712FEE36933F020023FF473
:1045400046AF3DE7012038BD1448C621FCF706FE02
:1045500053E7B0F5005F0CD0022A03D9032A8CD1AF
:10456000EA018AD501234022626584F83530184675
:1045700038BD032A81D801A050F822F06545000813
:1045800061450008654500088D450008B5F1C07F0C
:104590007FF473AFE6E700BF106002406C9600083E
:1045A0003F8010F0ABAAAAAAA496000800286CD0FD
:1045B00010B590F83530022B0446D8B264D0236889
:1045C000334A934233D01832934230D01832934258
:1045D0002DD0183293422AD01832934227D0183265
:1045E000934224D01832934221D0183293421ED0E5
:1045F00002F5567293421AD01832934217D01832ED
:10460000934214D01832934211D0183293420ED0F4
:10461000183293420BD01832934208D0183293428A
:1046200005D01C484FF4A471FCF798FD23681A4983
:10463000DAB2103AA1FB0201186820F001001860FC
:104640000020186058609860D86018612120586177
:104650000909124823F47F73405CE06523F00303EB
:104660005F2A88BF04333F2100228140C4E90F2222
:10467000C4E91122C4E91322A3651046996062655A
:1046800084F8342084F8352010BD0120704700BF25
:10469000106002406C960008ABAAAAAAA496000873
:1046A0002DE9F843D0F8588004461E46581E4FF6B0
:1046B000FE739842894617463CD894F83430012B53
:1046C00041D094F835300122934284F8342005D04B
:1046D000002384F834300220BDE8F883022384F8F4
:1046E00035302568E26D002363652B6823F4802351
:1046F0002B60A3686E60402B4FF03F0303FA02F378
:104700000BBFAF60C5F80890C5F80C90EF60C8F813
:1047100008302B68226C43F016032B601AB12B680B
:1047200043F008032B602B6843F0010300202B604B
:10473000BDE8F88305484FF4E671FCF70FFD94F8E7
:104740003430012BBDD10220BDE8F8836C960008FF
:1047500070B50446866D00F0E3FB94F83530022B0B
:1047600006D00023802284F834306265012070BDB9
:1047700023681A6822F016021A605A6922F0800231
:104780005A61226C054632B31A6822F008021A6098
:104790001A6822F001021A6005E000F0C1FB431B19
:1047A000052B0FD823681B6813F00103F5D1E16DC9
:1047B0003F228A400121B26084F8343084F83510F9
:1047C000184670BD032020220023626584F834302F
:1047D00084F8350070BDA26C002AD5D1D8E700BF9F
:1047E0002DE9F04182B0744A866D1568002301936B
:1047F000C36D346808229A402242804604D0016882
:104800000F68780700F18A8001229A40224204D082
:10481000D8F800104969090678D404229A40224247
:1048200004D0D8F8001009688F0767D410229A4086
:10483000224204D0D8F800100F68380749D420224B
:104840009A40224217D0D8F800100C68E00612D522
:10485000B26098F83520052A73D00B6813F4802FC6
:104860000B6800F09080190340F19B80D8F83C3031
:104870000BB140469847D8F854303BB3D8F8543081
:10488000DA071BD5D8F800204C49052388F83530C5
:104890001368A1FB051523F00103AD0A136002E0C4
:1048A0001368DB0704D5019B0133AB420193F7D9B1
:1048B0000022012388F8342088F83530D8F84C30AD
:1048C00023B1404602B0BDE8F041184702B0BDE850
:1048D000F081B2600A6812F4802F0A682AD1D705E5
:1048E00003D40A6822F008020A60D8F84020002A9F
:1048F000A5D040469047D8F85C30A0E7B260D8F821
:10490000542042F00402C8F854208FE7B260D8F86F
:10491000542042F00202C8F854207EE70F6827F0C6
:1049200004070F60B260D8F8542042F00102C8F8C2
:10493000542069E71203D8D5D8F84820002AD8D1E6
:104940007DE70A6822F016020A604A6922F08002B6
:104950004A61D8F8402052B30A6822F008020A607F
:104960003F2202FA03F3D8F85010B360002201236B
:1049700088F8342088F835300029A7D0404602B0A6
:10498000BDE8F041084713F480737FF46FAF0A6805
:1049900022F010020A60012288F8343088F83520AD
:1049A00064E7D8F84430002B7FF463AF63E7D8F8AE
:1049B0004820002AD0D1D3E780000020B5814E1BCB
:1049C0004F4B42689A4270B5044600F28980E36812
:1049D00033F4005304D04B4840F6FC31FCF7BEFBE7
:1049E000236933F4806202D0B3F5C06F7ED1606971
:1049F0004FF6F373184240D100283ED02268E36896
:104A000011692669E56921F4405119431161D168A2
:104A1000A36821F41641334321F00C012B430B43CF
:104A20000343D3605369A16923F440730B43B5F585
:104A3000004F5361344B2AD09A4225D003F580634E
:104A40009A4221D0FFF734F9636819219A00A0FB3C
:104A500001019B0FFCF7B0F82C4AA2FB00135B0985
:104A60002168642404FB130000013230A2FB002003
:104A70001B0103EB5010886070BD224840F6FE31E8
:104A8000FCF76CFB6069B9E7FFF722F9DCE79A42B3
:104A900032D003F580639A422ED0FFF709F962689D
:104AA0001A4D92184FF019014FF000035B41A0FB23
:104AB0000101FCF781F8A5FB00325109642303FBD7
:104AC0001103DB003233A5FB0323C3F342121B099E
:104AD000246802EB011203F4F8731344A36070BD61
:104AE000084840F6FB31FCF739FB70E7054840F613
:104AF000FD31FCF733FB7AE7FFF7EAF8CFE700BFB9
:104B0000A037A000AC960008001001401F85EB51B3
:104B10002DE9F04107460E4690461D463B6801E0F0
:104B20006A1C06D11C6836EA0402F9D10020BDE8EF
:104B3000F08135B100F0F4F9A0EB08008542EDD228
:104B40003B68DA6822F4D072DA605A6920210024C6
:104B500022F001025A61032087F8391087F83840A3
:104B600087F83A10E3E700BF002877D038B58369AB
:104B70000446002B4CD0026839498A425AD0A1F52C
:104B80004C418A4256D001F550418A4252D03548B4
:104B900040F24B11FCF7E2FAA369002B4AD1A3685B
:104BA00033F4805304D02F484FF4A971FCF7D6FAA0
:104BB000E36933F4004304D02A4840F25311FCF770
:104BC000CDFA94F8393003F0FF02002B40D0226870
:104BD000242384F83930D36823F400532046D3606B
:104BE000FFF7EEFE23681A6922F490421A615A69AF
:104BF00022F02A025A61DA680025202142F400528C
:104C0000DA60E56384F8391084F83A10284638BD34
:104C10000368134A9342C2D0A2F54C429342BED0DD
:104C200002F550429342BAD00E484FF4A871FCF7F7
:104C300095FAB4E723F40072B2F5807FAFD0B3F5F4
:104C4000007FACD007484FF4A671FCF787FAA6E7BF
:104C500084F838202046FCF7A5FAB8E70120704711
:104C600000100140AC9600082DE9F042044690F88F
:104C7000390020285AD10D46002952D01746002A63
:104C80004FD01E4694F83830012B4FD001234FF0FF
:104C9000000984F838302123C4F83C9084F8393076
:104CA00000F03EF9E784E38C84F838909BB2A78447
:104CB00081465BB92AE0FFF72BFF002839D1236832
:104CC00015F8012B5A60E38C9BB2FBB1B4F826C0F7
:104CD000A7680CF1FF3C1FFA8CFCB7F5805F3346E8
:104CE0004A464FF080012046A4F826C0E3D1FFF7E2
:104CF0000FFFF0B92B8821682269C3F308034B60CA
:104D000092B9E38C9BB20235002BDFD133464A4681
:104D100040212046FFF7FCFE58B9202384F83930A3
:104D200000E00120BDE8F0820135CCE70220BDE8BB
:104D3000F0820320BDE8F082C31E042B10B50446A8
:104D40000ED80A4A2302D4684FF6FF0103F4E06349
:104D50000C40234343F0BF6343F40033D36010BDE2
:104D600003489221FCF7FAF9EBE700BF00ED00E001
:104D7000E49600080F2A70B5164605460C4637D84B
:104D80000F2C30D81D4BDB68C3F30223C3F107009F
:104D9000042803F1040228BF0420062A18D9033B83
:104DA0004FF0FF329A4026EA02064FF0FF31814071
:104DB00024EA01049C40002D44EA06040BDB05F1C3
:104DC0006045240105F56145E4B285F8004370BDF6
:104DD00000263346E9E70A4B05F00F0524012B4472
:104DE000E4B21C7670BD0748AB21FCF7B7F9C9E700
:104DF0000448AA21FCF7B2F9C2E700BF00ED00E0C9
:104E0000FCEC00E0E4960008002809DB4109064AB2
:104E100000F01F00012303FA00F042F82100704760
:104E20000248BE21FCF79AB900E100E0E4960008D0
:104E3000BFF34F8F0549064BCA6802F4E062134383
:104E4000CB60BFF34F8F00BFFDE700BF00ED00E078
:104E50000400FA050138B0F1807F10D210B44FF091
:104E6000E023084C58614FF0F00C84F823C0002276
:104E7000072110469A615DF8044B196170470120C3
:104E8000704700BF00ED00E0704700BF38B50E4A24
:104E90000E4B12781B6805464FF47A70B0FBF2F0A7
:104EA000B3FBF0F0FFF7D6FF08B90F2D01D90120B1
:104EB00038BD0446024629464FF0FF30FFF75AFF3F
:104EC000034B20461D6038BD6C0000208000002090
:104ED0007000002008B50B4B1A6842F400721A608B
:104EE0001A6842F480621A601A6842F480721A608A
:104EF0000320FFF721FF0020FFF7C8FFFFF7C4FFE3
:104F0000002008BD003C0240034A044B11681B7896
:104F10000B441360704700BF380B00206C0000206A
:104F2000014B1868704700BF380B002038B50446A5
:104F3000FFF7F6FF631C054602D0044B1B781C44A8
:104F4000FFF7EEFF431BA342FAD338BD6C000020ED
:104F5000F0B54FF4127389B000240126CDE9054461
:104F6000CDE903361B4D019407942B6B1A4843F08F
:104F700002032B632B6B03F00203019303A9019B34
:104F8000FFF71CF8224614480821FFF76DF9224666
:104F900011484021FFF768F94FF4005722460E48A8
:104FA0004FF40071FFF760F9029403972B6B0B48E5
:104FB00043F004032B632B6B03F0040303A9029358
:104FC000029BFEF7FBFF054832463946FFF74CF9D6
:104FD00009B0F0BD00380240000402400008024061
:104FE000024800224FF40051FFF73EB9000802408A
:104FF000024801224FF40051FFF736B90008024081
:1050000002484FF40051FFF749B900BF00080240C1
:105010000228034600D97047034A044832F8231097
:105020000122FFF721B900BF7400002000040240F4
:105030000228034600D97047034A044832F8231077
:105040000022FFF711B900BF7400002000040240E5
:1050500030B5002487B0CDE904440E4B00941A6BA0
:105060000D4842F001021A631B6B012213400093AA
:105070000A4B039201A9CDE90123009DFEF79EFF93
:10508000224621460620FFF775FE0620FFF7BCFEEC
:1050900007B030BD0038024000000240000021107F
:1050A00008B5FFF7D5FFBDE80840FFF751BF00BFC7
:1050B000012804BF014B1860704700BF3C0B002063
:1050C000124B002270B59A660646FFF729FF104D75
:1050D000044604E0FFF724FF031B022B14D82B68BF
:1050E0001A01F7D40B49094B0E6201229A66FFF7A9
:1050F00017FF074D044604E0FFF712FF001B0228CC
:1051000002D82B681B01F7D570BD00BF00004742D5
:10511000003802400038004038B5012204460D46F0
:1051200007484FF48071FFF79FF8C5F38F022146BF
:105130000448FDF7B5FE003818BF012038BD00BF98
:1051400000040240400B002003468A08014819462B
:10515000FDF7A6BE400B002010B50748FDF702FF83
:10516000002204464FF480710448FFF77DF8201EAA
:1051700018BF012010BD00BF400B002000040240FA
:1051800008B538B1074800224FF48071FFF76CF87A
:10519000002008BD034801224FF48071FFF764F836
:1051A000002008BD00040240014B586F80B27047D8
:1051B0000060024008B5FCF7FFF908BD08B5FCF730
:1051C00001FA08BD704700BF08B5FFF7FBFF08BD37
:1051D000F0B58FB03A4C002500950695236C43F44A
:1051E00080432364236C03F480430093009B019568
:1051F000236B022213432363236B05921340019315
:105200004FF4304301990493064605232D4804A921
:10521000CDE90723FEF7D2FE0295236B294843F020
:1052200002032363236B0B9503F002030293029B9B
:1052300009A901234FF480770A93CDE90C5509970A
:10524000FEF7BCFE0395236B326843F4001323631F
:10525000236B03F4001303931B4B03999A4209D069
:10526000002205210F20FFF785FD0F20FFF7CCFD61
:105270000FB0F0BD154CB46303F50A3370332360EF
:105280004023C4E901534FF48063C4E903534FF44E
:1052900000624FF40053C4E905234FF40033C4E91E
:1052A0000773042203232046C4E90923C4E90B55EC
:1052B000A663FFF77BF92046FFF716F8D0E700BF9B
:1052C000003802400004024000380040880B0020F3
:1052D00010B54AF64443994288B01BD04BF6803350
:1052E00099422ED0214B994202A835D0FEF71CFEE0
:1052F000012419214FF4D472032302A8CDE90241FD
:10530000CDE90423FEF7F4FC40F20B10FFF7D8FEC2
:1053100008B010BD02A80190FEF706FE0198132404
:10532000042240F2AD114FF0010C1923CDE902C364
:10533000CDE90412FEF7DCFC2046FFF7C1FE08B001
:1053400010BD02A801904FF48674FEF7EDFD0198A0
:1053500005224FF4C071E6E7019040F20B14FEF70E
:10536000E3FD019803224FF4D471DCE700770100DC
:10537000F8B51F4E1F4CF369266023F480630D4679
:10538000F36120461746FDF755FD204600222946C9
:10539000FFF79EFF20462660FDF7B0FF18B3144BC1
:1053A0006561DA69236022F480624FF400710025A0
:1053B00061601048DA610323C4E90253C4E9065569
:1053C0002562FDF71BFC0C4837B12A464FF480716B
:1053D000FEF74AFF0020F8BD01224FF48071FEF76E
:1053E00043FF0020F8BD01462046FFF7F1FED6E757
:1053F00000380040400B002000040240054BD3F869
:1054000088204FF0006142F47002C3F88820996050
:10541000704700BF00ED00E088B108B5D0F88C32CD
:1054200013B10023C0F88C3209B1C0F888120123EF
:1054300080F874320270FBF76FFF002008BD022075
:10544000704700BF19B1C0F88C12002070470220CD
:10545000704700BF08B5FBF78BFF002008BD00BFF9
:1054600008B5D0F88C321BB11B68984700B908BD4D
:10547000022008BD08B5D0F88C325B689847002040
:1054800008BD00BF38B5044600F52075284600F079
:1054900087FB94F88012B4F88622C4F870220123A6
:1054A000C4F86C3201F01F03012B09D0022B13D07A
:1054B00063B101F080012046FBF77CFF002038BD7E
:1054C0002946204600F09CFA002038BD2946204697
:1054D00000F01EF9002038BD2946204600F0C4FA2D
:1054E000002038BD38B5054669B91346D0F86C229E
:1054F000032A15D0052A0C460ED1C5F86C12FBF70D
:1055000059FF204638BDD0F88C329B6933B190F8F2
:105510007422032A02D19847002038BD022038BDEA
:10552000D0E9531291420CD9891A8A4288BF8AB2B3
:10553000C0F84C1198BF92B2194600F09FFB0020B2
:1055400038BDD0F88C321B691BB190F87422032A45
:1055500004D0284600F09AFB002038BD9847F8E7B1
:1055600070B5044689B91346D0F86C22022A1CD0C3
:1055700032F0040302D18021FBF71CFF94F878324B
:10558000012B4FF000000DD070BDD0F88C325B695C
:1055900033B190F87422032A02D19847002070BDDD
:1055A000022070BD84F8780270BDD0E9086296428E
:1055B00027D8C369B3FBF2F502FB15355DB99A42F2
:1055C00009D8D0F87022934205D22A4600F040FB59
:1055D000C4F870521CE0D4F88C32DB681BB194F82C
:1055E0007422032A1BD080212046FBF7E3FE2046CD
:1055F00000F058FB94F87832012B4FF00000C3D133
:10560000D0E7B21A0D460262194692B200F020FBB2
:105610002B462A4629462046FBF700FFAEE72046E8
:105620009847E0E770B50022044611460125402660
:105630004023FBF7A5FE33468021C4F84451C4F84B
:10564000506100222046FBF79BFED4F89032A56102
:105650000021666284F87452C4F86C126160C4F868
:105660007C1223B1D4F88C3220465B689847002026
:1056700070BD00BF01740020704700BF90F8742215
:1056800080F87522042380F874320020704700BF30
:105690000346002093F8752283F87422704700BFF8
:1056A00090F87422032A01D00020704708B5D0F882
:1056B0008C32DB6903B19847002008BD90F8742252
:1056C000032A01D00020704708B5D0F88C321B6A3D
:1056D00003B19847002008BD90F87422032A01D036
:1056E0000020704708B5D0F88C325B6A03B1984748
:1056F000002008BD0020704708B5D0F88C22012199
:1057000080F87412526801799047002008BD00BFEC
:1057100030B50B7803F06003202B83B00D460446B0
:105720000DD0402B0BD09BB180212046FBF742FED1
:1057300000212046FBF73EFE002003B030BDD4F828
:105740008C3229469B6820469847002003B030BD24
:105750004B78092BE8D801A252F823F0B75700087C
:10576000DF57000829570008FD570008295700088F
:10577000055800083D580008295700086D580008D2
:105780008557000889789D4D01292970CCD890F85B
:105790007432022B00F00D81032B00F0F980802180
:1057A000FBF708FE00212046FBF704FE297820467F
:1057B000FFF760FEC0E790F87432013B022BB3D8CC
:1057C000CA88022AB0D1D0F87C320146002B14BF1F
:1057D0001346002341F80C3F00F02CFAACE790F898
:1057E0007432013B022B9FD84B88012BA4D100239C
:1057F000C4F87C32204600F049FA9DE74B88012B23
:105800009AD1F5E78B88002B8ED1CB88002B8BD1DA
:105810004D887F2D88D890F87432032B84D0E9B25C
:1058200080F87612FBF7EAFD204600F02FFA002DF3
:1058300000F0E080022384F874327DE74A88130A7E
:10584000013B062B3FF670AF01A151F823F000BFDA
:1058500013590008FB580008E958000829570008A8
:1058600029570008D358000893580008CA88012A0D
:105870007FF45AAF90F87432022B00F28280002B32
:105880003FF452AF0146002341F8083F00F0D2F93F
:1058900052E7037C002B7FF447AFD0F88C320DF138
:1058A00006001B6B984707234370BDF806205AB1CA
:1058B000EB88002B9ED09A4228BF1A46014620460C
:1058C000ADF8062000F0B6F9EB88002B7FF434AF7A
:1058D00090E7037C002B7FF427AFD0F88C320DF1DA
:1058E00006005B6B9847E0E7D2B2052A3FF61CAF93
:1058F000DFE802F03F372F271F17037C002B66D10C
:10590000D0F88C320DF106009B6A98470223437051
:10591000CBE7D0F88832007C1B680DF10601984770
:10592000C3E7D0F88832007C9B690DF106019847E7
:10593000BBE7D0F88832007C5B690DF1060198471F
:10594000B3E7D0F88832007C1B690DF10601984757
:10595000ABE7D0F88832007CDB680DF10601984790
:10596000A3E7D0F88832007C9B680DF106019847C8
:105970009BE7D0F88832007C5B680DF10601984700
:1059800093E7032B7FF4D0AE011D00F053F9D3E66B
:1059900031B3416801293FF42DAFC9B2FFF76AFD69
:1059A000297861602046FFF75BFD02287FF422AF73
:1059B000BAE600293FF41EAF01210323416080F8BD
:1059C0007432FFF74DFD02287FF414AFACE6D0F837
:1059D0008C320DF10600DB6A98470223437064E7BE
:1059E000022380F874324160FFF744FD204600F046
:1059F0004DF9A1E6012384F874329DE6E80B0020FE
:105A000038B50B7803F06002402A0D4604460AD0F0
:105A10005B0608D58021FBF7CDFC00212046FBF773
:105A2000C9FC002038BD94F87432013B022B11D818
:105A30002B79022B0ED8D4F88C3229469B6820464D
:105A40009847EB88002BECD10028EAD1204600F0E3
:105A50001DF9E6E780212046FBF7ACFC002120463B
:105A6000FBF7A8FC002038BD38B50B7803F06003C5
:105A7000202B04460CD0402B0AD083B18021204635
:105A8000FBF798FC00212046FBF794FC002038BD72
:105A9000D4F88C3220469B689847002038BD4B785C
:105AA0008A88012B5FFA82FC3DD0032B29D0002B82
:105AB000E4D190F87432022B50D0032BDED10CF0DD
:105AC0000F0303EB8303120600EB830355D4D3F8D3
:105AD0004431002BD2D00CF07F03142505FB0305C5
